:040000006CEF00F0B1
:100008004782D9CF08F0DACF09F0F3CF0AF0F4CF5E
:100018000BF0F6CF0CF0F7CF0DF0F8CF0EF0F5CFD0
:100028000FF0F2A443D0F2940B0ED76EDD0ED66E0D
:10003800000E116E000E106E05D01050C9EC01F0C4
:10004800116E102A1150D8A403D0030E1064F5D7EE
:100058001150D8B403D0090E3B6412D01150D8B453
:1000680025D0040E1018D8A421D01104D8B408D073
:10007800030E1118D8B404D0040E1118D8A416D041
:10008800110610061050040DF350010F1124076ECD
:1000980007C0F6FF020EF76E3B503C0FD96EDA6AC6
:1000A8000800F5CFDFFF010E3A6E3B2A0FC0F5FFBF
:1000B8000EC0F8FF0DC0F7FF0CC0F6FF0BC0F4FF31
:1000C8000AC0F3FF09C0DAFF08C0D9FF4792110040
:0400D800A7EF04F09A
:10020000003132334134353642373839432A3023CE
:100210004443617073746F6E650053656E64696EFC
:10022000670053656E696F72002000002AEC04F0CD
:10023000ECEC02F07AEC04F03A50D8B422D03B5007
:100240003B0FD96EDA6A2A0EDE18D8B41AD03B50AA
:100250003B0FD96EDA6A440EDE18D8B412D03B5088
:100260003B0FD96EDA6A230EDE18D8B40AD03B50A1
:100270003B0F336E33C02CF02D6A8DEC03F0000E73
:100280003A6E3A50D8B41BD03B503B0FD96EDA6A65
:100290002A0EDE18D8A413D0010E3B6410D045EC12
:1002A00004F03B503B0FD96EDA6ADF6A3B503A0FDD
:1002B000D96EDA6ADF6A020E3B5E000E3A6E3A5081
:1002C000D8B427D03B503B0FD96EDA6A440EDE1803
:1002D000D8A41FD05DEC03F0000E376E000E366E12
:1002E00007D036503C0FD96EDA6ADF6A364A372AB1
:1002F0003B50336E346A3350365C3750800A356E6B
:100300003450800A3558D8A0ECD7000E3B6E000E52
:100310003A6E3A50D8B43BD03B503B0FD96EDA6AB4
:10032000230EDE18D8A433D0000E316E010E60EC1F
:1003300004F01A0E2C6E2C50D8A4020E2D6E8DECEB
:1003400003F03B503B0FD96EDA6ADF6A26EC03F00C
:100350005DEC03F0000E396E000E386E07D0385099
:100360003C0FD96EDA6ADF6A384A392A3B50336E5D
:10037000346A3350385C3950800A356E3450800A04
:100380003558D8A0ECD7000E3A6E000E3B6E030035
:1003900053D7046E04C001F0010E026E012A02D090
:1003A000D8900236012EFCD702508910896E000EBB
:1003B000056E000E066E46D006C001F0800E026E7D
:1003C000000E036E012A03D0033403320232012EE1
:1003D000FBD7025081140009D8B433D0900EB16E0F
:1003E000A092630EB36EC10EB26EA192B180A1A2B3
:1003F000FED7B190A19206C001F0800E026E000EF1
:10040000036E012A03D0033403320232012EFBD7DC
:10041000025081140009D8B414D006C001F0800E37
:10042000026E000E036E012A03D00334033202323F
:10043000012EFBD7025081140009D8A4EED706285C
:10044000056E062A040E066003D00550D8B4B4D752
:1004500004C001F0010E026E012A02D0D8900236CB
:10046000012EFCD702508918896E05501200B00E7B
:10047000CD6E9D901EC012F01FC013F020C014F06E
:1004800021C015F0E80E166E030E176E000E186EE2
:10049000000E196EBBEC03F01250226E1350236E47
:1004A0001450246E1550256E266A276A286A296A18
:1004B00019D0FF0E225EFF0E235A000E245A000EA2
:1004C000255A000E265A000E275A000E285A000EF2
:1004D000295A000ECF6E000ECE6ECD809EA0FED7A4
:1004E000CD909E9029502810271026102510E1E16C
:1004F0002404D8B0DED722500008226E000E235408
:10050000236E010E2454246E000E2554256E000E19
:100510002654266E000E2754276E000E2854286E8F
:10052000000E2954296E000ECF6E22C0CEFFCD8062
:100530009EA0FED7CD909E901200306E4E0EB4EC71
:1005400004F0D8902B342D6E2AC02EF0D8902E3681
:10055000D8902E36D8902E363050F00B2E102D100D
:100560002C100409C1EC04F0010E1E6E000E1F6E6B
:10057000000E206E000E216E37EC02F02A38E842A1
:10058000F80BC1EC04F0D8902B342D6E2AC02EF05D
:10059000D8902E36D8902E36D8902E3630C02FF0E8
:1005A0000F0E2F162F38F00B2E102D102C100409C3
:1005B000C1EC04F0010E1E6E000E1F6E000E206EC8
:1005C000000E216E37EC02F02A38E842F80BC1EC3D
:1005D00004F0CAEC04F01200010E2A6E000E2B6E1D
:1005E000000E2C6E020E9DEC02F0010E2A6E000E23
:1005F0002B6E000E2C6E280E9DEC02F05DEC03F0CD
:10060000010E2A6E000E2B6E000E2C6E0F0E9DEC4E
:1006100002F0050E316E000E60EC04F0220E2C6E1E
:100620002C50D8A4020E2D6E8DEC03F0040E316E0A
:10063000010E60EC04F0110E2C6E2C50D8A4020EAA
:100640002D6E8DEC03F05DEC03F01200000E316EA8
:10065000000E306E000E2F6E000E2E6E92EC04F027
:1006600022D030503C0FD96EDA6ADF500F0B0EECFF
:1006700004F030503C0FD96EDA6ADF502D6E2D3801
:100680000F0B0F0B0EEC04F02E4A2F2A030E2E1820
:100690002F10D8A408D0304A312A92EC04F0000E72
:1006A0002F6E000E2E6E30503C0FD96EDA6ADF507E
:1006B000D8A4D7D792EC04F012004E0EB4EC04F09C
:1006C0000C0EC1EC04F0010E1E6E000E1F6E000E2B
:1006D000206E000E216E37EC02F0080EC1EC04F023
:1006E0001C0EC1EC04F0010E1E6E000E1F6E000EFB
:1006F000206E000E216E37EC02F0180EC1EC04F0F3
:10070000010E1E6E000E1F6E000E206E000E216E7A
:1007100037EC02F0CAEC04F012004E0EB4EC04F018
:1007200014D02CC0F6FF2DC0F7FFF86A010EF76455
:1007300003D00800F55005D0F6CFE9FFF7CFEAFF68
:10074000EF50E6EC03F02C4A2D2A2CC0F6FF2DC00A
:10075000F7FFF86A010EF76403D00800F55005D0E2
:10076000F6CFE9FFF7CFEAFFEF500009D8A4D9D7B9
:10077000CAEC04F01200000E1A6E000E1B6E000E82
:100780001C6E000E1D6E12A008D016501A261750AF
:100790001B2218501C2219501D22D89016361736CD
:1007A00018361936D89015321432133212321250CC
:1007B000131014101510D8A4E6D71AC012F01BC0DD
:1007C00013F01CC014F01DC015F012002B6E2B503E
:1007D000F00B0D09C1EC04F02B50F00B0809C1EC33
:1007E00004F02BC02AF00F0E2A162A38F00B0D0940
:1007F000C1EC04F02BC02AF00F0E2A162A38F00B99
:100800000809C1EC04F0010E1E6E000E1F6E000EF2
:10081000206E000E216E37EC02F012002A6E8A5014
:10082000F00B2A108A6E8B9EC80E1E6E000E1F6E75
:10083000000E206E000E216E37EC02F08B8E0A0E39
:100840001E6E000E1F6E000E206E000E216E37EC25
:1008500002F01200FC0ED316D38E700ED3129B8CB6
:10086000F28EF28CF19ED09E8B8E949E9350F00B64
:10087000936EC78EC79C500EC86EC68AC650F00BCA
:100880000809C66E948694881200010E2A6E000E26
:100890002B6E000E2C6E100E9DEC02F0290E2C6EAD
:1008A0002C50D8A4020E2D6E8DEC03F0010E2A6E92
:1008B000000E2B6E000E2C6E100E9DEC02F012003E
:1008C000326E3250D8A40BD0010E2A6E000E2B6E61
:1008D000000E2C6E315080099DEC02F01200010ECA
:1008E0002A6E000E2B6E000E2C6E3150C0099DEC4E
:1008F00002F012000F0EC1129250F00B926E935044
:10090000F009936E8950F00B896E81500F0B816E48
:10091000040ED56EF2940B0ED76EDD0ED66EF28AF3
:10092000D58E1200000E2C6E000E2B6E0A0E0EECF1
:1009300004F00A0E0EEC04F02B4A2C2A2CBEF6D73B
:100940002C5004E12B04D8B01200F0D7120000EEB6
:100950003AF00D0EEE6AE806FDE147904792000E70
:10096000F86E000116EF01F0126EC5809EA6FED74C
:100970009E9612C0C9FF9EA6FED79E96C5AC1200D9
:10098000F8D7126E12C0C9FF9EA6FED79E96C5ACC0
:0E0990001200F8D7C5849EA6FED79E961200D0
:020000040030CA
:0E000000FF081F1EFF8381FF03C003E00340C3
:00000001FF
