:020000040000FA
:040000006CEF00F0B1
:100008004982D9CF08F0DACF09F0F3CF0AF0F4CF5C
:100018000BF0F6CF0CF0F7CF0DF0F8CF0EF0F5CFD0
:100028000FF0F2A443D0F2940B0ED76EDD0ED66E0D
:10003800000E116E000E106E05D01050FFEC01F08E
:10004800116E102A1150D8A403D0030E1064F5D7EE
:100058001150D8B403D0090E3D6412D01150D8B451
:1000680025D0040E1018D8A421D01104D8B408D073
:10007800030E1118D8B404D0040E1118D8A416D041
:10008800110610061050040DF350010F1124076ECD
:1000980007C0F6FF020EF76E3D503E0FD96EDA6AC2
:1000A8000800F5CFDFFF010E3C6E3D2A0FC0F5FFBB
:1000B8000EC0F8FF0DC0F7FF0CC0F6FF0BC0F4FF31
:1000C8000AC0F3FF09C0DAFF08C0D9FF499211003E
:0400D800F7EF04F04A
:10020000003132334134353642373839432A3023CE
:100210004443617073746F6E650053656E64696EFC
:10022000670053656E696F720020000047EC04F0B0
:100230005CEC03F0B5EC04F03C50D8B42AD03D504F
:100240003D0FD96EDA6A2A0EDE18D8B422D03D509E
:100250003D0FD96EDA6A440EDE18D8B41AD03D507C
:100260003D0FD96EDA6A230EDE18D8B412D03D5095
:100270003D0FD96EDA6A410EDE18D8B40AD03D506F
:100280003D0F336E33C02CF02D6AC6EC03F0000E28
:100290003C6E3C50D8B41BD03D503D0FD96EDA6A4D
:1002A0002A0EDE18D8A413D0010E3D6410D080ECC5
:1002B00004F03D503D0FD96EDA6ADF6A3D503C0FC5
:1002C000D96EDA6ADF6A020E3D5E000E3C6E3C506B
:1002D000D8B427D03D503D0FD96EDA6A440EDE18EF
:1002E000D8A41FD096EC03F0000E376E000E366EC9
:1002F00007D036503E0FD96EDA6ADF6A364A372A9F
:100300003D50336E346A3350365C3750800A356E58
:100310003450800A3558D8A0ECD7000E3D6E000E40
:100320003C6E3C50D8B42BD03D503D0FD96EDA6AAC
:10033000410EDE18D8A423D096EC03F0000E3B6EDD
:10034000000E3A6E3A503E0FD96EDA6A3A50300FCC
:10035000DF6E3A4A3B2A3BBEF5D73B5004E1060E1E
:100360003A5CD8A0EFD73D503D0F336E33C02CF030
:100370002D6AC6EC03F00A0E3D6E000E3C6E3C503A
:10038000D8B43BD03D503D0FD96EDA6A230EDE184B
:10039000D8A433D0000E316E010E9BEC04F01A0E7F
:1003A0002C6E2C50D8A4020E2D6EC6EC03F03D50DE
:1003B0003D0FD96EDA6ADF6A22EC03F096EC03F0A7
:1003C000000E396E000E386E07D038503E0FD96ED1
:1003D000DA6ADF6A384A392A3D50336E346A33505C
:1003E000385C3950800A356E3450800A3558D8A0B0
:1003F000ECD7000E3C6E000E3D6E03001DD7046E60
:1004000004C001F0010E026E012A02D0D89002361B
:10041000012EFCD702508910896E000E056E000E69
:10042000066E46D006C001F0800E026E000E036E0E
:10043000012A03D0033403320232012EFBD70250CB
:1004400081140009D8B433D0900EB16EA092630E1F
:10045000B36EC10EB26EA192B180A1A2FED7B190CF
:10046000A19206C001F0800E026E000E036E012AFA
:1004700003D0033403320232012EFBD70250811421
:100480000009D8B414D006C001F0800E026E000E30
:10049000036E012A03D0033403320232012EFBD74C
:1004A000025081140009D8A4EED70628056E062A4A
:1004B000040E066003D00550D8B4B4D704C001F0D0
:1004C000010E026E012A02D0D8900236012EFCD70E
:1004D00002508918896E05501200B00ECD6E9D90A5
:1004E0001EC012F01FC013F020C014F021C015F080
:1004F000E80E166E030E176E000E186E000E196EC3
:10050000F4EC03F01250226E1350236E1450246E3C
:100510001550256E266A276A286A296A19D0FF0EA7
:10052000225EFF0E235A000E245A000E255A000E9A
:10053000265A000E275A000E285A000E295A000E7D
:10054000CF6E000ECE6ECD809EA0FED7CD909E9039
:1005500029502810271026102510E1E12404D8B0D6
:10056000DED722500008226E000E2354236E010EA7
:100570002454246E000E2554256E000E2654266E3B
:10058000000E2754276E000E2854286E000E2954A2
:10059000296E000ECF6E22C0CEFFCD809EA0FED76A
:1005A000CD909E901200306E4E0E04EC05F0D89067
:1005B0002B342D6E2AC02EF0D8902E36D8902E36A1
:1005C000D8902E363050F00B2E102D102C10040920
:1005D00011EC05F0010E1E6E000E1F6E000E206E57
:1005E000000E216E6DEC02F02A38E842F80B11EC97
:1005F00005F0D8902B342D6E2AC02EF0D8902E36D0
:10060000D8902E36D8902E3630C02FF00F0E2F16E1
:100610002F38F00B2E102D102C10040911EC05F0C2
:10062000010E1E6E000E1F6E000E206E000E216E5B
:100630006DEC02F02A38E842F80B11EC05F01AECE8
:1006400005F01200000E316E000E306ECDEC04F09D
:10065000000E2F6E000E2E6E15D030503E0FD96E4C
:10066000DA6ADF500F0B64EC04F030503E0FD96EA5
:10067000DA6ADF502D6E2D380F0B0F0B64EC04F08F
:10068000304A312A30503E0FD96EDA6ADF50D8A492
:10069000E4D7E2EC04F0000E316E000E306E2E4A0C
:1006A0002F2A2FBEEFD72F5004E1070E2E5CD8A0C3
:1006B000E9D7CDEC04F01200010E2A6E000E2B6E6D
:1006C000000E2C6E020ED3EC02F0010E2A6E000E0C
:1006D0002B6E000E2C6E280ED3EC02F096EC03F07D
:1006E000010E2A6E000E2B6E000E2C6E0F0ED3EC38
:1006F00002F0050E316E000E9BEC04F0220E2C6E03
:100700002C50D8A4020E2D6EC6EC03F0040E316EF0
:10071000010E9BEC04F0110E2C6E2C50D8A4020E8E
:100720002D6EC6EC03F096EC03F012004E0E04ECB6
:1007300005F00C0E11EC05F0010E1E6E000E1F6E82
:10074000000E206E000E216E6DEC02F0080E11EC12
:1007500005F01C0E11EC05F0010E1E6E000E1F6E52
:10076000000E206E000E216E6DEC02F0180E11ECE2
:1007700005F0010E1E6E000E1F6E000E206E000EA4
:10078000216E6DEC02F01AEC05F012004E0E04EC36
:1007900005F014D02CC0F6FF2DC0F7FFF86A010E4B
:1007A000F76403D00800F55005D0F6CFE9FFF7CF86
:1007B000EAFFEF501FEC04F02C4A2D2A2CC0F6FF64
:1007C0002DC0F7FFF86A010EF76403D00800F5505A
:1007D00005D0F6CFE9FFF7CFEAFFEF500009D8A424
:1007E000D9D71AEC05F01200000E1A6E000E1B6E1F
:1007F000000E1C6E000E1D6E12A008D016501A2698
:1008000017501B2218501C2219501D22D890163642
:10081000173618361936D890153214321332123270
:100820001250131014101510D8A4E6D71AC012F0E5
:100830001BC013F01CC014F01DC015F012002B6E6D
:100840002B50F00B0D0911EC05F02B50F00B0809A3
:1008500011EC05F02BC02AF00F0E2A162A38F00BE7
:100860000D0911EC05F02BC02AF00F0E2A162A38BC
:10087000F00B080911EC05F0010E1E6E000E1F6E44
:10088000000E206E000E216E6DEC02F01200FC0EC8
:10089000D316D38E700ED3129B8CF28EF28CF19EF7
:1008A000D09E8B8E949E9350F00B936EC78EC79CF8
:1008B000500EC86EC68AC650F00B0809C66E9486E4
:1008C0009488000E486E12002A6E8A50F00B2A108F
:1008D0008A6E8B9E4B0E1E6E000E1F6E000E206EDB
:1008E000000E216E6DEC02F08B8E0A0E1E6E000E55
:1008F0001F6E000E206E000E216E6DEC02F01200D5
:10090000010E2A6E000E2B6E000E2C6E100ED3EC14
:1009100002F0290E2C6E2C50D8A4020E2D6EC6ECBF
:1009200003F0010E2A6E000E2B6E000E2C6E100EC0
:10093000D3EC02F01200326E3250D8A40BD0010E6C
:100940002A6E000E2B6E000E2C6E31508009D3ECF7
:1009500002F01200010E2A6E000E2B6E000E2C6E9D
:100960003150C009D3EC02F012000F0EC1129250A8
:10097000F00B926E9350F009936E8950F00B896ED4
:1009800081500F0B816E040ED56EF2940B0ED76E54
:10099000DD0ED66EF28AD58E1200000E2C6E000E81
:1009A0002B6E0A0E64EC04F00A0E64EC04F02B4A81
:1009B0002C2A2CBEF6D72C5004E12B04D8B0120000
:1009C000F0D71200000E2C6E000E2B6E0B0E64EC96
:1009D00004F00B0E64EC04F02B4A2C2A2CBEF6D744
:1009E0002C5004E12B04D8B01200F0D7120000EE16
:1009F0003CF00D0EEE6AE806FDE149904992000ECA
:100A0000F86E000116EF01F0126EC5809EA6FED7AB
:100A10009E9612C0C9FF9EA6FED79E96C5AC120038
:100A2000F8D7126E12C0C9FF9EA6FED79E96C5AC1F
:0E0A30001200F8D7C5849EA6FED79E9612002F
:020000040030CA
:0E000000FF081F1EFF8381FF03C003E00340C3
:00000001FF
