:040000006CEF00F0B1
:100008004982D9CF08F0DACF09F0F3CF0AF0F4CF5C
:100018000BF0F6CF0CF0F7CF0DF0F8CF0EF0F5CFD0
:100028000FF0F2A443D0F2940B0ED76EDD0ED66E0D
:10003800000E116E000E106E05D01050FDEC01F090
:10004800116E102A1150D8A403D0030E1064F5D7EE
:100058001150D8B403D0090E3D6412D01150D8B451
:1000680025D0040E1018D8A421D01104D8B408D073
:10007800030E1118D8B404D0040E1118D8A416D041
:10008800110610061050040DF350010F1124076ECD
:1000980007C0F6FF020EF76E3D503E0FD96EDA6AC2
:1000A8000800F5CFDFFF010E3C6E3D2A0FC0F5FFBB
:1000B8000EC0F8FF0DC0F7FF0CC0F6FF0BC0F4FF31
:1000C8000AC0F3FF09C0DAFF08C0D9FF499211003E
:0400D800F7EF04F04A
:10020000003132334134353642373839432A3023CE
:100210004443617073746F6E650053656E64696EFC
:10022000670053656E696F720020000045EC04F0B2
:100230005AEC03F0B3EC04F03C50D8B42AD03D5053
:100240003D0FD96EDA6A2A0EDE18D8B422D03D509E
:100250003D0FD96EDA6A440EDE18D8B41AD03D507C
:100260003D0FD96EDA6A230EDE18D8B412D03D5095
:100270003D0FD96EDA6A410EDE18D8B40AD03D506F
:100280003D0F336E33C02CF02D6AC4EC03F0000E2A
:100290003C6E3C50D8B41BD03D503D0FD96EDA6A4D
:1002A0002A0EDE18D8A413D0010E3D6410D07EECC7
:1002B00004F03D503D0FD96EDA6ADF6A3D503C0FC5
:1002C000D96EDA6ADF6A020E3D5E000E3C6E3C506B
:1002D000D8B427D03D503D0FD96EDA6A440EDE18EF
:1002E000D8A41FD094EC03F0000E376E000E366ECB
:1002F00007D036503E0FD96EDA6ADF6A364A372A9F
:100300003D50336E346A3350365C3750800A356E58
:100310003450800A3558D8A0ECD7000E3D6E000E40
:100320003C6E3C50D8B429D03D503D0FD96EDA6AAE
:10033000410EDE18D8A421D0000E3B6E000E3A6E9E
:100340003A503E0FD96EDA6A3A50300FDF6E3A4AB1
:100350003B2A3BBEF5D73B5004E1060E3A5CD8A0E1
:10036000EFD73D503D0F336E33C02CF02D6AC4ECF7
:1003700003F0060E3D6E000E3C6E3C50D8B43BD0F0
:100380003D503D0FD96EDA6A230EDE18D8A433D063
:10039000000E316E010E99EC04F01A0E2C6E2C50EA
:1003A000D8A4020E2D6EC4EC03F03D503D0FD96E63
:1003B000DA6ADF6A20EC03F094EC03F0000E396E89
:1003C000000E386E07D038503E0FD96EDA6ADF6AF9
:1003D000384A392A3D50336E346A3350385C3950CC
:1003E000800A356E3450800A3558D8A0ECD7000EFC
:1003F0003C6E000E3D6E03001FD7046E04C001F07A
:10040000010E026E012A02D0D8900236012EFCD7CE
:1004100002508910896E000E056E000E066E46D0E1
:1004200006C001F0800E026E000E036E012A03D09A
:10043000033403320232012EFBD70250811400092B
:10044000D8B433D0900EB16EA092630EB36EC10ECD
:10045000B26EA192B180A1A2FED7B190A19206C0C6
:1004600001F0800E026E000E036E012A03D00334E9
:1004700003320232012EFBD7025081140009D8B496
:1004800014D006C001F0800E026E000E036E012A29
:1004900003D0033403320232012EFBD70250811401
:1004A0000009D8A4EED70628056E062A040E0660B9
:1004B00003D00550D8B4B4D704C001F0010E026EC9
:1004C000012A02D0D8900236012EFCD7025089189A
:1004D000896E05501200B00ECD6E9D901EC012F0B8
:1004E0001FC013F020C014F021C015F0E80E166EE6
:1004F000030E176E000E186E000E196EF2EC03F06C
:100500001250226E1350236E1450246E1550256E17
:10051000266A276A286A296A19D0FF0E225EFF0E12
:10052000235A000E245A000E255A000E265A000E99
:10053000275A000E285A000E295A000ECF6E000EC0
:10054000CE6ECD809EA0FED7CD909E9029502810D3
:10055000271026102510E1E12404D8B0DED7225060
:100560000008226E000E2354236E010E2454246EC4
:10057000000E2554256E000E2654266E000E2754BC
:10058000276E000E2854286E000E2954296E000E86
:10059000CF6E22C0CEFFCD809EA0FED7CD909E9084
:1005A0001200306E4E0E04EC05F0D8902B342D6EF8
:1005B0002AC02EF0D8902E36D8902E36D8902E36CF
:1005C0003050F00B2E102D102C10040911EC05F0FA
:1005D000010E1E6E000E1F6E000E206E000E216EAC
:1005E0006BEC02F02A38E842F80B11EC05F0D890D9
:1005F0002B342D6E2AC02EF0D8902E36D8902E3661
:10060000D8902E3630C02FF00F0E2F162F38F00B4B
:100610002E102D102C10040911EC05F0010E1E6E89
:10062000000E1F6E000E206E000E216E6BEC02F0AD
:100630002A38E842F80B11EC05F01AEC05F012002C
:10064000000E316E000E306ECBEC04F0000E2F6EFB
:10065000000E2E6E15D030503E0FD96EDA6ADF5084
:100660000F0B62EC04F030503E0FD96EDA6ADF50A7
:100670002D6E2D380F0B0F0B62EC04F0304A312A2F
:1006800030503E0FD96EDA6ADF50D8A4E4D7E1ECDF
:1006900004F0000E316E000E306E2E4A2F2A2FBE4F
:1006A000EFD72F5004E1070E2E5CD8A0E9D7CBEC92
:1006B00004F01200010E2A6E000E2B6E000E2C6E3E
:1006C000020ED1EC02F0010E2A6E000E2B6E000E0F
:1006D0002C6E280ED1EC02F094EC03F0010E2A6E81
:1006E000000E2B6E000E2C6E0F0ED1EC02F0050EDC
:1006F000316E000E99EC04F0220E2C6E2C50D8A412
:10070000020E2D6EC4EC03F0040E316E010E99EC56
:1007100004F0110E2C6E2C50D8A4020E2D6EC4ECD9
:1007200003F094EC03F012004E0E04EC05F00C0EF6
:1007300011EC05F0010E1E6E000E1F6E000E206EF5
:10074000000E216E6BEC02F0080E11EC05F01C0E91
:1007500011EC05F0010E1E6E000E1F6E000E206ED5
:10076000000E216E6BEC02F0180E11EC05F0010E7C
:100770001E6E000E1F6E000E206E000E216E6BECC2
:1007800002F01AEC05F012004E0E04EC05F014D045
:100790002CC0F6FF2DC0F7FFF86A010EF76403D0F6
:1007A0000800F55005D0F6CFE9FFF7CFEAFFEF508C
:1007B0001DEC04F02C4A2D2A2CC0F6FF2DC0F7FFAB
:1007C000F86A010EF76403D00800F55005D0F6CFA3
:1007D000E9FFF7CFEAFFEF500009D8A4D9D71AEC08
:1007E00005F01200000E1A6E000E1B6E000E1C6E3D
:1007F000000E1D6E12A008D016501A2617501B228C
:1008000018501C2219501D22D8901636173618364B
:100810001936D89015321432133212321250131086
:1008200014101510D8A4E6D71AC012F01BC013F08C
:100830001CC014F01DC015F012002B6E2B50F00BD5
:100840000D0911EC05F02B50F00B080911EC05F027
:100850002BC02AF00F0E2A162A38F00B0D0911ECC6
:1008600005F02BC02AF00F0E2A162A38F00B0809C3
:1008700011EC05F0010E1E6E000E1F6E000E206EB4
:10088000000E216E6BEC02F01200FC0ED316D38E1C
:10089000700ED3129B8CF28EF28CF19ED09E8B8EBA
:1008A000949E9350F00B936EC78EC79C500EC86EEB
:1008B000C68AC650F00B0809C66E94869488000E4E
:1008C000486E12002A6E8A50F00B2A108A6E8B9E98
:1008D000460E1E6E000E1F6E000E206E000E216E64
:1008E0006BEC02F08B8E460E1E6E000E1F6E000E1D
:1008F000206E000E216E6BEC02F01200010E2A6ECB
:10090000000E2B6E000E2C6E100ED1EC02F0290E94
:100910002C6E2C50D8A4020E2D6EC4EC03F0010EE8
:100920002A6E000E2B6E000E2C6E100ED1EC02F013
:100930001200326E3250D8A40BD0010E2A6E000E77
:100940002B6E000E2C6E31508009D1EC02F012009B
:10095000010E2A6E000E2B6E000E2C6E3150C00957
:10096000D1EC02F012000F0EC1129250F00B926EF9
:100970009350F009936E8950F00B896E81500F0BE4
:10098000816E040ED56EF2940B0ED76EDD0ED66E10
:10099000F28AD58E1200000E2C6E000E2B6E0A0EFF
:1009A00062EC04F00A0E62EC04F02B4A2C2A2CBEF6
:1009B000F6D72C5005E1030E2B5CD8B01200EFD710
:1009C0001200000E2C6E000E2B6E0B0E62EC04F06B
:1009D0000B0E62EC04F02B4A2C2A2CBEF6D72C50BE
:1009E00005E1030E2B5CD8B01200EFD7120000EE29
:1009F0003CF00D0EEE6AE806FDE149904992000ECA
:100A0000F86E000116EF01F0126EC5809EA6FED7AB
:100A10009E9612C0C9FF9EA6FED79E96C5AC120038
:100A2000F8D7126E12C0C9FF9EA6FED79E96C5AC1F
:0E0A30001200F8D7C5849EA6FED79E9612002F
:020000040030CA
:0E000000FF081F1EFF8381FF03C003E00340C3
:00000001FF
